{
  "address": "0xCf7Ed3AccA5a467e9e704C703E8D87F634fB0Fc9",
  "abi": [
    {
      "inputs": [
        {
          "internalType": "address",
          "name": "vrfCoordinatorV2",
          "type": "address"
        },
        {
          "internalType": "uint256",
          "name": "entranceFee",
          "type": "uint256"
        },
        {
          "internalType": "bytes32",
          "name": "gasLane",
          "type": "bytes32"
        },
        {
          "internalType": "uint64",
          "name": "subId",
          "type": "uint64"
        },
        {
          "internalType": "uint32",
          "name": "callBackGasLimit",
          "type": "uint32"
        },
        {
          "internalType": "uint256",
          "name": "interval",
          "type": "uint256"
        }
      ],
      "stateMutability": "nonpayable",
      "type": "constructor"
    },
    {
      "inputs": [
        {
          "internalType": "uint256",
          "name": "balance",
          "type": "uint256"
        },
        {
          "internalType": "uint256",
          "name": "numPlayers",
          "type": "uint256"
        },
        {
          "internalType": "uint256",
          "name": "state",
          "type": "uint256"
        }
      ],
      "name": "Lottery__UpkeepNotNeeded",
      "type": "error"
    },
    {
      "inputs": [],
      "name": "Lottery__notEnoughETH",
      "type": "error"
    },
    {
      "inputs": [],
      "name": "Lottery__notOpen",
      "type": "error"
    },
    {
      "inputs": [],
      "name": "Lottery__transferFailed",
      "type": "error"
    },
    {
      "inputs": [
        {
          "internalType": "address",
          "name": "have",
          "type": "address"
        },
        {
          "internalType": "address",
          "name": "want",
          "type": "address"
        }
      ],
      "name": "OnlyCoordinatorCanFulfill",
      "type": "error"
    },
    {
      "anonymous": false,
      "inputs": [
        {
          "indexed": true,
          "internalType": "address",
          "name": "player",
          "type": "address"
        }
      ],
      "name": "LotteryEnter",
      "type": "event"
    },
    {
      "anonymous": false,
      "inputs": [
        {
          "indexed": true,
          "internalType": "uint256",
          "name": "requestID",
          "type": "uint256"
        }
      ],
      "name": "RequestedRaffleID",
      "type": "event"
    },
    {
      "anonymous": false,
      "inputs": [
        {
          "indexed": true,
          "internalType": "address",
          "name": "winner",
          "type": "address"
        }
      ],
      "name": "WinnerPicked",
      "type": "event"
    },
    {
      "inputs": [
        {
          "internalType": "bytes",
          "name": "",
          "type": "bytes"
        }
      ],
      "name": "checkUpkeep",
      "outputs": [
        {
          "internalType": "bool",
          "name": "upkeepNeeded",
          "type": "bool"
        },
        {
          "internalType": "bytes",
          "name": "",
          "type": "bytes"
        }
      ],
      "stateMutability": "view",
      "type": "function"
    },
    {
      "inputs": [],
      "name": "enterLottery",
      "outputs": [],
      "stateMutability": "payable",
      "type": "function"
    },
    {
      "inputs": [],
      "name": "getEntranceFee",
      "outputs": [
        {
          "internalType": "uint256",
          "name": "",
          "type": "uint256"
        }
      ],
      "stateMutability": "view",
      "type": "function"
    },
    {
      "inputs": [],
      "name": "getInterval",
      "outputs": [
        {
          "internalType": "uint256",
          "name": "",
          "type": "uint256"
        }
      ],
      "stateMutability": "view",
      "type": "function"
    },
    {
      "inputs": [],
      "name": "getLatestTimeStamp",
      "outputs": [
        {
          "internalType": "uint256",
          "name": "",
          "type": "uint256"
        }
      ],
      "stateMutability": "view",
      "type": "function"
    },
    {
      "inputs": [],
      "name": "getLotteryState",
      "outputs": [
        {
          "internalType": "enum Lottery.LotteryState",
          "name": "",
          "type": "uint8"
        }
      ],
      "stateMutability": "view",
      "type": "function"
    },
    {
      "inputs": [],
      "name": "getNumWords",
      "outputs": [
        {
          "internalType": "uint256",
          "name": "",
          "type": "uint256"
        }
      ],
      "stateMutability": "pure",
      "type": "function"
    },
    {
      "inputs": [
        {
          "internalType": "uint256",
          "name": "index",
          "type": "uint256"
        }
      ],
      "name": "getPlayers",
      "outputs": [
        {
          "internalType": "address",
          "name": "",
          "type": "address"
        }
      ],
      "stateMutability": "view",
      "type": "function"
    },
    {
      "inputs": [],
      "name": "getRecentWinner",
      "outputs": [
        {
          "internalType": "address",
          "name": "",
          "type": "address"
        }
      ],
      "stateMutability": "view",
      "type": "function"
    },
    {
      "inputs": [],
      "name": "getRequestConfirmations",
      "outputs": [
        {
          "internalType": "uint256",
          "name": "",
          "type": "uint256"
        }
      ],
      "stateMutability": "pure",
      "type": "function"
    },
    {
      "inputs": [],
      "name": "numberPlayers",
      "outputs": [
        {
          "internalType": "uint256",
          "name": "",
          "type": "uint256"
        }
      ],
      "stateMutability": "view",
      "type": "function"
    },
    {
      "inputs": [
        {
          "internalType": "bytes",
          "name": "",
          "type": "bytes"
        }
      ],
      "name": "performUpkeep",
      "outputs": [],
      "stateMutability": "nonpayable",
      "type": "function"
    },
    {
      "inputs": [
        {
          "internalType": "uint256",
          "name": "requestId",
          "type": "uint256"
        },
        {
          "internalType": "uint256[]",
          "name": "randomWords",
          "type": "uint256[]"
        }
      ],
      "name": "rawFulfillRandomWords",
      "outputs": [],
      "stateMutability": "nonpayable",
      "type": "function"
    }
  ],
  "transactionHash": "0x416e8cd906fc82964fd0ce8678f4d9752e0fef2d76e0dbaf32b6e14455da5f1d",
  "args": [
    "0x5FbDB2315678afecb367f032d93F642f64180aa3",
    "10000000000000000",
    "0x79d3d8832d904592c0bf9818b621522c988bb8b0c05cdc3b15aea1b6e8db0c15",
    "1",
    "500000",
    "30"
  ],
  "numDeployments": 1,
  "solcInputHash": "e5a1ae412a5ec85734cd20ae452dd012",
  "bytecode": "0x6101606040523480156200001257600080fd5b506040516200175838038062001758833981810160405281019062000038919062000294565b858073ffffffffffffffffffffffffffffffffffffffff1660808173ffffffffffffffffffffffffffffffffffffffff1681525050508460c081815250508573ffffffffffffffffffffffffffffffffffffffff1660a08173ffffffffffffffffffffffffffffffffffffffff16815250508360e081815250508267ffffffffffffffff166101008167ffffffffffffffff16815250508163ffffffff166101208163ffffffff16815250506000600160146101000a81548160ff021916908360018111156200010d576200010c62000330565b5b0217905550426002819055508061014081815250505050505050506200035f565b600080fd5b600073ffffffffffffffffffffffffffffffffffffffff82169050919050565b6000620001608262000133565b9050919050565b620001728162000153565b81146200017e57600080fd5b50565b600081519050620001928162000167565b92915050565b6000819050919050565b620001ad8162000198565b8114620001b957600080fd5b50565b600081519050620001cd81620001a2565b92915050565b6000819050919050565b620001e881620001d3565b8114620001f457600080fd5b50565b6000815190506200020881620001dd565b92915050565b600067ffffffffffffffff82169050919050565b6200022d816200020e565b81146200023957600080fd5b50565b6000815190506200024d8162000222565b92915050565b600063ffffffff82169050919050565b6200026e8162000253565b81146200027a57600080fd5b50565b6000815190506200028e8162000263565b92915050565b60008060008060008060c08789031215620002b457620002b36200012e565b5b6000620002c489828a0162000181565b9650506020620002d789828a01620001bc565b9550506040620002ea89828a01620001f7565b9450506060620002fd89828a016200023c565b93505060806200031089828a016200027d565b92505060a06200032389828a01620001bc565b9150509295509295509295565b7f4e487b7100000000000000000000000000000000000000000000000000000000600052602160045260246000fd5b60805160a05160c05160e051610100516101205161014051611389620003cf600039600081816106c901526107370152600061051f015260006104fc015260006104db0152600081816102fa015261075d0152600061049f015260008181610320015261037401526113896000f3fe6080604052600436106100c25760003560e01c806349a2aaca1161007f5780636b68c03c116100595780636b68c03c146102585780636e04ff0d1461028357806391ad27b4146102c1578063c1af5785146102ec576100c2565b806349a2aaca146101d757806353a2c19a146102025780635f1b0fd81461022d576100c2565b806309bc33a7146100c75780631fe543e3146100f2578063320229eb1461011b5780634585e33b14610146578063460e20491461016f578063473f1ddc146101ac575b600080fd5b3480156100d357600080fd5b506100dc6102f6565b6040516100e99190610bbb565b60405180910390f35b3480156100fe57600080fd5b5061011960048036038101906101149190610d6f565b61031e565b005b34801561012757600080fd5b506101306103de565b60405161013d9190610bbb565b60405180910390f35b34801561015257600080fd5b5061016d60048036038101906101689190610e80565b6103e8565b005b34801561017b57600080fd5b5061019660048036038101906101919190610ec9565b6105d7565b6040516101a39190610f37565b60405180910390f35b3480156101b857600080fd5b506101c161061e565b6040516101ce9190610f37565b60405180910390f35b3480156101e357600080fd5b506101ec610648565b6040516101f99190610bbb565b60405180910390f35b34801561020e57600080fd5b50610217610654565b6040516102249190610bbb565b60405180910390f35b34801561023957600080fd5b50610242610663565b60405161024f9190610bbb565b60405180910390f35b34801561026457600080fd5b5061026d610670565b60405161027a9190610fc9565b60405180910390f35b34801561028f57600080fd5b506102aa60048036038101906102a59190610e80565b610687565b6040516102b892919061107e565b60405180910390f35b3480156102cd57600080fd5b506102d6610733565b6040516102e39190610bbb565b60405180910390f35b6102f461075b565b005b60007f0000000000000000000000000000000000000000000000000000000000000000905090565b7f000000000000000000000000000000000000000000000000000000000000000073ffffffffffffffffffffffffffffffffffffffff163373ffffffffffffffffffffffffffffffffffffffff16146103d057337f00000000000000000000000000000000000000000000000000000000000000006040517f1cf993f40000000000000000000000000000000000000000000000000000000081526004016103c79291906110ae565b60405180910390fd5b6103da82826108ca565b5050565b6000600254905090565b600061040260405180602001604052806000815250610687565b509050806104715747600080549050600160149054906101000a900460ff16600181111561043357610432610f52565b5b6040517f6e195f25000000000000000000000000000000000000000000000000000000008152600401610468939291906110d7565b60405180910390fd5b60018060146101000a81548160ff0219169083600181111561049657610495610f52565b5b021790555060007f000000000000000000000000000000000000000000000000000000000000000073ffffffffffffffffffffffffffffffffffffffff16635d3b1d307f00000000000000000000000000000000000000000000000000000000000000007f000000000000000000000000000000000000000000000000000000000000000060037f000000000000000000000000000000000000000000000000000000000000000060016040518663ffffffff1660e01b8152600401610560959493929190611186565b6020604051808303816000875af115801561057f573d6000803e3d6000fd5b505050506040513d601f19601f820116820180604052508101906105a391906111ee565b9050807f48be49e9b549fc170a06007159f3e7ec58862f0f2aa8975ca16951c6cde4161a60405160405180910390a2505050565b60008082815481106105ec576105eb61121b565b5b9060005260206000200160009054906101000a900473ffffffffffffffffffffffffffffffffffffffff169050919050565b6000600160009054906101000a900473ffffffffffffffffffffffffffffffffffffffff16905090565b60008080549050905090565b6000600163ffffffff16905090565b6000600361ffff16905090565b6000600160149054906101000a900460ff16905090565b6000606060008060018111156106a05761069f610f52565b5b600160149054906101000a900460ff1660018111156106c2576106c1610f52565b5b14905060007f0000000000000000000000000000000000000000000000000000000000000000600254426106f69190611279565b119050600080600080549050119050600080471190508380156107165750815b801561071f5750805b80156107285750825b955050505050915091565b60007f0000000000000000000000000000000000000000000000000000000000000000905090565b7f00000000000000000000000000000000000000000000000000000000000000003410156107b5576040517f3b82066900000000000000000000000000000000000000000000000000000000815260040160405180910390fd5b600060018111156107c9576107c8610f52565b5b600160149054906101000a900460ff1660018111156107eb576107ea610f52565b5b14610822576040517fed918b3600000000000000000000000000000000000000000000000000000000815260040160405180910390fd5b6000339080600181540180825580915050600190039060005260206000200160009091909190916101000a81548173ffffffffffffffffffffffffffffffffffffffff021916908373ffffffffffffffffffffffffffffffffffffffff1602179055503373ffffffffffffffffffffffffffffffffffffffff167f1d64fb5ba9f2548c5b98468d58f25b87b9e866afee0122e92d9fe722bf85076c60405160405180910390a2565b60008080549050826000815181106108e5576108e461121b565b5b60200260200101516108f791906112dc565b9050600080828154811061090e5761090d61121b565b5b9060005260206000200160009054906101000a900473ffffffffffffffffffffffffffffffffffffffff16905080600160006101000a81548173ffffffffffffffffffffffffffffffffffffffff021916908373ffffffffffffffffffffffffffffffffffffffff1602179055506000600160146101000a81548160ff021916908360018111156109a2576109a1610f52565b5b0217905550600067ffffffffffffffff8111156109c2576109c1610c2c565b5b6040519080825280602002602001820160405280156109f05781602001602082028036833780820191505090505b5060009080519060200190610a06929190610afb565b504260028190555060008173ffffffffffffffffffffffffffffffffffffffff1647604051610a349061133e565b60006040518083038185875af1925050503d8060008114610a71576040519150601f19603f3d011682016040523d82523d6000602084013e610a76565b606091505b5050905080610ab1576040517f699592f000000000000000000000000000000000000000000000000000000000815260040160405180910390fd5b8173ffffffffffffffffffffffffffffffffffffffff167f5b690ec4a06fe979403046eaeea5b3ce38524683c3001f662c8b5a829632f7df60405160405180910390a25050505050565b828054828255906000526020600020908101928215610b74579160200282015b82811115610b735782518260006101000a81548173ffffffffffffffffffffffffffffffffffffffff021916908373ffffffffffffffffffffffffffffffffffffffff16021790555091602001919060010190610b1b565b5b509050610b819190610b85565b5090565b5b80821115610b9e576000816000905550600101610b86565b5090565b6000819050919050565b610bb581610ba2565b82525050565b6000602082019050610bd06000830184610bac565b92915050565b6000604051905090565b600080fd5b600080fd5b610bf381610ba2565b8114610bfe57600080fd5b50565b600081359050610c1081610bea565b92915050565b600080fd5b6000601f19601f8301169050919050565b7f4e487b7100000000000000000000000000000000000000000000000000000000600052604160045260246000fd5b610c6482610c1b565b810181811067ffffffffffffffff82111715610c8357610c82610c2c565b5b80604052505050565b6000610c96610bd6565b9050610ca28282610c5b565b919050565b600067ffffffffffffffff821115610cc257610cc1610c2c565b5b602082029050602081019050919050565b600080fd5b6000610ceb610ce684610ca7565b610c8c565b90508083825260208201905060208402830185811115610d0e57610d0d610cd3565b5b835b81811015610d375780610d238882610c01565b845260208401935050602081019050610d10565b5050509392505050565b600082601f830112610d5657610d55610c16565b5b8135610d66848260208601610cd8565b91505092915050565b60008060408385031215610d8657610d85610be0565b5b6000610d9485828601610c01565b925050602083013567ffffffffffffffff811115610db557610db4610be5565b5b610dc185828601610d41565b9150509250929050565b600080fd5b600067ffffffffffffffff821115610deb57610dea610c2c565b5b610df482610c1b565b9050602081019050919050565b82818337600083830152505050565b6000610e23610e1e84610dd0565b610c8c565b905082815260208101848484011115610e3f57610e3e610dcb565b5b610e4a848285610e01565b509392505050565b600082601f830112610e6757610e66610c16565b5b8135610e77848260208601610e10565b91505092915050565b600060208284031215610e9657610e95610be0565b5b600082013567ffffffffffffffff811115610eb457610eb3610be5565b5b610ec084828501610e52565b91505092915050565b600060208284031215610edf57610ede610be0565b5b6000610eed84828501610c01565b91505092915050565b600073ffffffffffffffffffffffffffffffffffffffff82169050919050565b6000610f2182610ef6565b9050919050565b610f3181610f16565b82525050565b6000602082019050610f4c6000830184610f28565b92915050565b7f4e487b7100000000000000000000000000000000000000000000000000000000600052602160045260246000fd5b60028110610f9257610f91610f52565b5b50565b6000819050610fa382610f81565b919050565b6000610fb382610f95565b9050919050565b610fc381610fa8565b82525050565b6000602082019050610fde6000830184610fba565b92915050565b60008115159050919050565b610ff981610fe4565b82525050565b600081519050919050565b600082825260208201905092915050565b60005b8381101561103957808201518184015260208101905061101e565b60008484015250505050565b600061105082610fff565b61105a818561100a565b935061106a81856020860161101b565b61107381610c1b565b840191505092915050565b60006040820190506110936000830185610ff0565b81810360208301526110a58184611045565b90509392505050565b60006040820190506110c36000830185610f28565b6110d06020830184610f28565b9392505050565b60006060820190506110ec6000830186610bac565b6110f96020830185610bac565b6111066040830184610bac565b949350505050565b6000819050919050565b6111218161110e565b82525050565b600067ffffffffffffffff82169050919050565b61114481611127565b82525050565b600061ffff82169050919050565b6111618161114a565b82525050565b600063ffffffff82169050919050565b61118081611167565b82525050565b600060a08201905061119b6000830188611118565b6111a8602083018761113b565b6111b56040830186611158565b6111c26060830185611177565b6111cf6080830184611177565b9695505050505050565b6000815190506111e881610bea565b92915050565b60006020828403121561120457611203610be0565b5b6000611212848285016111d9565b91505092915050565b7f4e487b7100000000000000000000000000000000000000000000000000000000600052603260045260246000fd5b7f4e487b7100000000000000000000000000000000000000000000000000000000600052601160045260246000fd5b600061128482610ba2565b915061128f83610ba2565b92508282039050818111156112a7576112a661124a565b5b92915050565b7f4e487b7100000000000000000000000000000000000000000000000000000000600052601260045260246000fd5b60006112e782610ba2565b91506112f283610ba2565b925082611302576113016112ad565b5b828206905092915050565b600081905092915050565b50565b600061132860008361130d565b915061133382611318565b600082019050919050565b60006113498261131b565b915081905091905056fea2646970667358221220355477633ea531488417d3d002da183750982b7eeb19e168ed22a939febffd8c64736f6c63430008110033",
  "devdoc": {
    "kind": "dev",
    "methods": {},
    "version": 1
  },
  "userdoc": {
    "kind": "user",
    "methods": {},
    "version": 1
  },
  "storageLayout": {
    "storage": [
      {
        "astId": 199,
        "contract": "contracts/Lottery.sol:Lottery",
        "label": "s_players",
        "offset": 0,
        "slot": "0",
        "type": "t_array(t_address_payable)dyn_storage"
      },
      {
        "astId": 215,
        "contract": "contracts/Lottery.sol:Lottery",
        "label": "s_recentWinner",
        "offset": 0,
        "slot": "1",
        "type": "t_address"
      },
      {
        "astId": 218,
        "contract": "contracts/Lottery.sol:Lottery",
        "label": "s_state",
        "offset": 20,
        "slot": "1",
        "type": "t_enum(LotteryState)191"
      },
      {
        "astId": 220,
        "contract": "contracts/Lottery.sol:Lottery",
        "label": "s_lastTimeStamp",
        "offset": 0,
        "slot": "2",
        "type": "t_uint256"
      }
    ],
    "types": {
      "t_address": {
        "encoding": "inplace",
        "label": "address",
        "numberOfBytes": "20"
      },
      "t_address_payable": {
        "encoding": "inplace",
        "label": "address payable",
        "numberOfBytes": "20"
      },
      "t_array(t_address_payable)dyn_storage": {
        "base": "t_address_payable",
        "encoding": "dynamic_array",
        "label": "address payable[]",
        "numberOfBytes": "32"
      },
      "t_enum(LotteryState)191": {
        "encoding": "inplace",
        "label": "enum Lottery.LotteryState",
        "numberOfBytes": "1"
      },
      "t_uint256": {
        "encoding": "inplace",
        "label": "uint256",
        "numberOfBytes": "32"
      }
    }
  }
}